:10000000C9350002001E021AFEFFFFFFFFFF023289
:10001000D1FFFFFFFFFFFFFFFFFFFFFFFFFF0233E7
:100020007C7581CE90FDE88583A01234EEEC4D60A6
:100030007378AB8003760018B89CFA787F800376DB
:100040000018B865FA78208003760018B820FA788E
:10005000208003760018B81FFA90FDDDAE83AF82D2
:1000600090FBF81200AA6005E4F0A380F690FDE88A
:10007000A88290FDE8A982E8696005E4F20880F7AB
:100080009001081200B390010C1200B390011012FD
:1000900000B39001141200D190011A1200D1900106
:1000A000201200D175D0001233CE020126EF6582F6
:1000B0007003EE658322E493F8740193F97402935C
:1000C000FE740393F5828E83E869700122E493F64F
:1000D000A30880F4E493FC740193FD740293FE740E
:1000E0000393FF740493F8740593F58288831200D8
:1000F000AA700122E493A3A883A9828C838D82F045
:10010000A3AC83AD828883898280E32121049B8014
:1001100080049BACAE049BFDE8049D049DFBF304AE
:10012000A2049DFBF30502050280FED0F030F00929
:1001300020F303F68010F7800D30F10920F303F26D
:100140008004F38001F020F404FCD0E0CC22CCC089
:10015000E0120163020154BC0005D0F0ACF022C3F0
:1001600013DCFC02012ABF0009ED258275F001F8BD
:10017000E622BF010FED2582F582EE3583F583750A
:10018000F004E022ED258275F002F8E222D083D05F
:1001900082F5F0C3E493A3C5F095F0C0E0C3D0F0BE
:1001A000E493A395F04012A3A3C3E5F033500205F6
:1001B000832582F58250020583740193C0E0E493A5
:1001C000C0E022D083D082F5F0E4937009740193EB
:1001D0007004A3A3800C74029365F06005A3A3A32D
:1001E00080E7740193C0E0E493C0E022120264024D
:1001F00001FB1202B80201FB1202DC0201FB30E03B
:100200000720E302E622E72230E10720E302E222B0
:10021000E32230E202E022E493221202DC02022313
:100220001202B8020223ABF012022DCBC5F0CB2292
:1002300030E01020E306E6F5F008E622E7F5F009E5
:10024000E7192230E11020E306E2F5F008E222E3AC
:10025000F5F009E3192230E206E0F5F0A3E022E42C
:1002600093F5F074019322BB0003740922BB0107CC
:1002700089828A83740422BB020789828A8374106C
:1002800022740A22020284BB0007E92582F8740165
:1002900022BB010DE92582F582EA3583F5837404DA
:1002A00022BB020DE92582F582EA3583F5837410BD
:1002B00022E92582F87402220202B8BF0005EDF897
:1002C000740122BF01078D828E83740422BF02074E
:1002D0008D828E83741022EDF87402220202DCBF3C
:1002E0000007ED2582F8740122BF010DED2582F58E
:1002F00082EE3583F583740422BF020DED2582F56D
:1003000082EE3583F583741022ED2582F874022283
:10031000020310C0E0120264020328C0E01202B817
:10032000020328C0E01202DC02032830E00B20E3C5
:1003300004D0E0F622D0E0F72230E10B20E304D035
:10034000E0F222D0E0F322D0E0F022C9CDC9CACE3B
:10035000CACBCFCB12035BEDF9EEFAEFFB22BB0069
:100360002FBF000AFAEDF8E7F60809DAFA22BF0112
:10037000128D828E83F802037809A3E7F0D8FA225F
:10038000020383FAEDF8E7F20809DAFA2202038D94
:10039000BB014DBF001489828A83F9EDF802039FE7
:1003A00008A3E0F6D9FA220203B0BF01228D828EA3
:1003B00083FB08C9C582C9CAC583CAE0A3C9C5826F
:1003C000C9CAC583CAF0A3DBEAD8E8220203D38DE9
:1003D000828E83F9EDF8E0F208A3D9FA220203DD58
:1003E000BB024DBF001289828A83F9EDF80203EF48
:1003F00008A3E493F6D9F922BF01238D828E83FBF3
:1004000008C9C582C9CAC583CAE493A3C9C582C93C
:10041000CAC583CAF0A3DBE9D8E722020422898295
:100420008A83F9EDF8E493F208A3D9F922020433A0
:10043000BF000DFAEDF8E3F60809DAFA2202043DEE
:10044000BF01128D828E83F802044A09A3E3F0D81B
:10045000FA22020455FAEDF8E3F20809DAFA220268
:10046000045FE6FB08E6FA08E6F904F618700106F0
:1004700022E6FF08E6FE08E6FD22EFF0A3EEF0A379
:10048000EDF022EBF0A3EAF0A3E9F022E0FFA3E015
:10049000FEA3E0FD22E0FBA3E0FAA3E0F9220000C6
:1004A00000000000000502006105710026059800AB
:1004B000330A1000610A7C0066154900610D0000D6
:1004C0006109B0006109E700610DC700610BF80028
:1004D000610A2300610A5800611741003317540074
:1004E000341E1900431EBD0044202A004420180079
:1004F000471EE400471F89004D1FDA004F1F06000A
:1005000058325C00617CCC7DFF121CCA2290FFFC3B
:10051000E020E72DC2AFAE59AF58755A20E55A1406
:10052000C55A6019E4FE7F05EE4FCE24FFCECF34CE
:10053000FFCF6007E490FF92F080ED80E08E598F4E
:10054000582212050A7D077CB71232787D0F7C6E27
:10055000123292789D7A06E4F608DAFC7A061205E1
:10056000CD7C03120E5C12214AE4FEFF7C0F123296
:1005700001D2A8221230ECE490FC38F090FFF0E0B9
:1005800030E408740190FC39F08005E490FC39F007
:100590007D0A7C0012252812316F221230EC90FC6B
:1005A00039E014700E90FFF0E04410F07C0012254A
:1005B000C1801990FC39E0700E90FFF0E054EFF02C
:1005C0007C001225C180057C171225C112316F22D3
:1005D00090FFF0E054ABF090FFF0E04420F0228C6C
:1005E000378D367882EDF608ECF6EDFEECFD7F01F6
:1005F0009000051201F57880F67882E6FD08E6FCA9
:10060000EDFEECFD7F019000041201F5540FFC7D1E
:10061000801217727880E6700DAD3AAE39AF38E4CB
:100620001203187C082290FFF0E054FEF090FFF0D7
:10063000E054FDF0801E7882E6FD08E6FCEDFEEC5D
:10064000FD7F0190000812021725E0440190FFF39E
:10065000F00206D97882E6FD08E6FCEDFEECFD7FAF
:100660000190000612021754FE90FFF3F0802B78E1
:1006700082E6FD08E6FCEDFEECFD7F01900008122D
:100680000217FAEB90FFF1F01208C8400DAD3AAE38
:1006900039AF38E41203187C18227882E6FD08E6A8
:1006A000FCEDFEECFD7F0190000812021790FFF1B7
:1006B000F01208C8400DAD3AAE39AF38E412031855
:1006C0007C18227882E6FD08E6FCEDFEECFD7F0159
:1006D000900006120217440190FFF3F07883E6249D
:1006E00003F618E63400F67880E624FE500990FF01
:1006F000F0E054FDF0800790FFF0E04402F0E49059
:10070000FFF1F0788176007880E624FFFCE434FF86
:10071000FD7881E67F00FEECD39EEF6480CD64809F
:100720009D402F1208AD400F7881E6AD3AAE39AF4B
:10073000381203187C182290FFF2E0FC788286833E
:10074000088682ECF0788106A37882A68308A682C8
:1007500080B51208AD400F7881E6AD3AAE39AF38BA
:100760001203187C182290FFF2E0FC78828683083E
:100770008682ECF07880E6AD3AAE39AF38120318D5
:100780007C00228C378D367882EDF608ECF6EDFE93
:10079000ECFD7F019000051201F57881F67882E684
:1007A000FD08E6FCEDFEECFD7F019000041201F572
:1007B000540FFC7D811217727881E670037C082249
:1007C00090FFF0E054FEF090FFF0E054FDF0801B4D
:1007D0007882E6FD08E6FCEDFEECFD7F0190000866
:1007E00012021725E090FFF3F0805B7882E6FD08A7
:1007F000E6FCEDFEECFD7F0190000612021754FEB0
:1008000090FFF3F080217882E6FD08E6FCEDFEEC37
:10081000FD7F01900008120217FAEB90FFF1F01231
:1008200008C840037C18227882E6FD08E6FCEDFE4D
:10083000ECFD7F0190000812021790FFF1F0120802
:10084000C840037C18227883E6240AF618E63400B0
:10085000F6788076007881E624FFFCE434FFFD78AA
:1008600080E67F00FEECD39EEF6480CD64809D40E7
:100870002178828683088682E090FFF1F01208C812
:1008800040037C1822788006788306E618700106FB
:1008900080C390FFF0E04401F0788286830886826E
:1008A000E090FFF1F01208C840037C18227C00227F
:1008B00090FFF0E020E71290FFF0E030E50990FFB4
:1008C000F0E04420F0C32280E7D32290FFF0E02044
:1008D000E31290FFF0E030E50990FFF0E04420F0F3
:1008E000C32280E7D3228C428D417C00ED54F0FD81
:1008F000EC7003ED64307005753E038003753E04B3
:10090000AC3E120F77758300858340E541540FF5A7
:100910003FE5407004E53F6403703CAC42AD4112DA
:100920001C5FE53E24FD75F00AA42402F582E43440
:10093000FCF583E030E60512105E8019E53E249D4B
:10094000F8E654FBF678A9E62405F58218E63400AB
:10095000F583740FF08059E5407004E53F6404703E
:1009600048E53E24FD75F00AA42402F582E434FC37
:10097000F583E030E507AC42AD41121C5FE5423043
:10098000E21578ADE630E00F78ADE630E109E4FF3E
:1009900004FE7C0412320178A9E62406F58218E6EA
:1009A0003400F583740FF08007E4FC7DEE121C5FC9
:1009B000C203221230EC120F7778A9E62406F582E2
:1009C00018E63400F583E090FC38F078A9E62405B9
:1009D000F58218E63400F583E090FC39F0C2037D1F
:1009E000027C0012252812316F221230EC7895EC2F
:1009F000F6EC249DF8E630E1077C131225C1800F48
:100A000090FC39E0FD7895E6FC1213F41225C11232
:100A1000316F221230EC7895ECF67D00120F171230
:100A200025C112316F221230EC7895ECF6EC249D42
:100A3000F8E630E2077C131225C1801B7895E62486
:100A40009DF8E620E1077C121225C1800A7895E620
:100A5000FC1214181225C112316F221230EC789555
:100A6000ECF6EC249DF8E620E2077C111225C1800B
:100A70000A7895E6FC1215191225C112316F22125F
:100A800030EC7895ECF6120F7778A9E62409F58218
:100A900018E63400F583E090FC3FF078A9E6240ADC
:100AA000F58218E63400F583E090FC40F078A9E682
:100AB0002403F58218E63400F583E0FC78A9E624E7
:100AC00004F58218E63400F583E0F56278A9E6249F
:100AD00002F58218E63400F583E0F5638C61E4ECFE
:100AE000333354017895F66008E56230E103789578
:100AF000067895E690FC41F078A7E62402F5821886
:100B0000E63400F583E0FDA3E0540CFCED54E68CE4
:100B100065F564E56130E503436501E56220E50EB6
:100B2000E561547F7008E56120E703436502E561F4
:100B300030E303436510E56130E203436520E5617E
:100B400054036003436540E56130E103436580E59C
:100B50006130E403436401E56130E603436408E582
:100B60006220E40EE561547F7008E56120E70343ED
:100B700064105365FB5364F9AD64E56590FC3ACDB0
:100B8000F0A3CDF0E56330E30DE5635430C4540FBA
:100B900090FC3DF08005E490FC3DF0E5635403904B
:100BA000FC3CF0E5635404C31390FC3EF090FC3C25
:100BB000E0700E7D357EFC7F01740190000912010A
:100BC0004B78A9E62408F58218E63400F583E07C2A
:100BD00000FD78A9E62407F58218E63400F583E0E5
:100BE0007F004CFEEF4D90FC38F0A3CEF0CEC20358
:100BF0007D0A7C0012252812316F221230EC789584
:100C0000ECF6789A76010876FC0876387897760CB8
:100C1000789A12046E12021D7898CBF6CB08F67FF4
:100C200000EF24EA401FE4EF25E0903530FD93CD3E
:100C300004937899667003ED1866700678977600CD
:100C400080030F80DC7896EFF6789A12046E90009D
:100C5000021202177898CBF6CB08F65404CB540650
:100C60004B60047897760B7899E630E313789A1204
:100C7000046E9000051201F524FB50047897760D60
:100C80007899E654C07D0064C04D70047897760B67
:100C9000789A12046E9000041201F524FC50047836
:100CA00097760F789A12046E9000061201F524FDD3
:100CB00050047897760E789A12046E90000912010B
:100CC000F524FD50047897760A7897E6702A78958F
:100CD000E6FC120F77789A12046E78A7E6F978A6E8
:100CE000E6FA7B01740A7800120348C2037895E69D
:100CF000FC12111A7897ECF67897E6FC1225C112CF
:100D0000316F221230EC7895ECF6120F777895E679
:100D100024FD75F00AA42414F582E434FCF583ACB8
:100D200082AD8378A68683088682ECF9EDFA7B0A89
:100D300078011203B0C2037895E6FC12111A123141
:100D40006F228D2B8C2AED6040752701752948751F
:100D500028FFE52A24FDFCE434FFFDEC7C0325E0BC
:100D6000CD33CDDCF9FCE5292CF529E5283DF52826
:100D7000AD29AE28AF27748090000612032074803E
:100D8000900002120320120FCAE52B14603B752756
:100D9000017529087528FFE52A24FDFCE434FFFDD0
:100DA000EC7C0325E0CD33CDDCF9FCE5292CF529DD
:100DB000E5283DF528AD29AE28AF27E490000612BE
:100DC0000320E4900002120320221230EC7895EC0C
:100DD000F6EC249DF8E630E2097895E6FC12151948
:100DE000D2007895E6FC120F777896760090FC3961
:100DF000E030E704789676017896E6FD7895E6FC93
:100E0000120D3FC2033000077895E6FC1214187CDF
:100E1000001225C112316F2278A9E62404F5821848
:100E2000E63400F583E04401F078A9E62404F58275
:100E300018E63400F583E030E00280ED78A9E6247E
:100E40000BF58218E63400F583E054F8F078A9E653
:100E50002402F58218E63400F583E04480F022C2D3
:100E6000038C58120F7778A6868308868279617A78
:100E7000357B0A78011203FE120E15AC587D021262
:100E80000D3FC203AC5812111A228D538E528F514E
:100E90008C50120F77754F0078A9E62405F582185B
:100EA000E63400F583E020E41DE54F24F640170505
:100EB0004FC2037C181232AF90FF93E04401F0ACB4
:100EC00050120F7780D278A9E62405F58218E6340F
:100ED00000F583E020E405C2037C022278A9E62421
:100EE00005F58218E63400F583E0540F601678A902
:100EF000E62405F58218E63400F583E0540FF0C2CD
:100F0000037C012278A88683088682E0AD53AE5226
:100F1000AF51120318C2037C00228D318C301215A0
:100F200019E531600FE530B4030A7C011224F07C2E
:100F3000811224F0AC30120F77E531601A78AA865E
:100F400083088682E054E7F0A3A3A3A3E054E7F06C
:100F5000AC307D02120D3F78A68683088682796BBD
:100F60007A357B0A78011203FEC203E530249DF82E
:100F7000E654FDF6AC3012111A228C26300305120D
:100F8000324E80F87C0A123161D203E52624FD78C6
:100F9000A3F6700778AA76FF0876E078A3E67D00CE
:100FA0007C0425E0CD33CDDCF9FC24A078A9F6ED56
:100FB00034FF18F678A3E675F00AA42400FCE434A4
:100FC000FCFD78A6EDF608ECF61231FA2278A9E6D7
:100FD0002402F58218E63400F583E030E72278A990
:100FE000E62402F58218E63400F583E0547FF078B9
:100FF000A9E62402F58218E63400F583E04480F087
:101000002278AA8683088682E0547FF0AD83E58249
:101010002404FCE43D8C82F583E0547FF078A9E65B
:10102000240BF58218E63400F583E054F8F078AB31
:10103000E62401F58218E63400F583E04403F078F5
:10104000ABE62405F58218E63400F583E04403F0AE
:1010500078A9E62405F58218E63400F583740FF0CC
:101060002278AA8683088682E0543FF0AD83E58229
:101070002404FCE43D8C82F583E0543FF078A3E641
:1010800024A4F8E6FC78ABE62401F58218E63400E7
:10109000F583ECF078A3E624A4F8E6FC78ABE6242C
:1010A00005F58218E63400F583ECF078A9E6240B08
:1010B000F58218E63400F583E054FB4402F5267807
:1010C000A7E62402F58218E63400F583E030E50354
:1010D00043260178A9E62405F58218E63400F58355
:1010E000E030E003120FCAE526FC78A9E6240BF5F0
:1010F0008218E63400F583ECF078A9E62405F58241
:1011000018E63400F583740FF078AA868308868287
:10111000E04480F0A3A3A3A3E04480F0228C2A1231
:101120000F7778A7E62408F58218E63400F583E007
:10113000FC78A9E6240AF58218E63400F583ECF081
:1011400078A7E62407F58218E63400F583E0FC78FA
:10115000A9E62409F58218E63400F583ECF078A6B8
:101160008683088682E0FDA3E0FCEDFE78A9E624F4
:1011700008F58218E63400F583EEF0ECFE78A9E677
:101180002407F58218E63400F583EEF08C298D28CB
:10119000C3EC9405ED940C400575277C8033D3E5B2
:1011A000299401E5289403400575273C8023D3E565
:1011B000299481E528940140057527188013D3E50B
:1011C000299460E5289400400575270C8003752755
:1011D00008AF27E4EF547C4483FF8F27E527FC7892
:1011E000ABE62401F58218E63400F583ECF0E52740
:1011F000FC78ABE62405F58218E63400F583ECF0C4
:10120000E527FC78A3E624A4F8ECF678A9E6240206
:10121000F58218E63400F583E0F52778A7E6240286
:10122000F58218E63400F583A3E030E3175327C7AF
:1012300078A7E62405F58218E63400F583E09035BA
:101240005C93422778A7E62402F58218E63400F57D
:1012500083E030E70543274080035327BF5327FB34
:1012600078A7E62406F58218E63400F583E06003EB
:101270004327045327FC78A7E62404F58218E634B4
:1012800000F583E04227432780E527FC78A9E62480
:1012900002F58218E63400F583ECF078A9E6240420
:1012A000F58218E63400F583E0F52778A7E62402F6
:1012B000F58218E63400F583A3E030E1055327DF1B
:1012C000800343272078A7E62402F58218E634003D
:1012D000F583E030E4055327EF800343271078A718
:1012E000E62409F58218E63400F583E0B4020343EE
:1012F0002702E527FC78A9E62404F58218E63400E5
:10130000F583ECF078A9E62403F58218E63400F5BD
:1013100083E0F52778A7E62409F58218E63400F57E
:1013200083E0700553277F800343278078A7E62456
:1013300002F58218E63400F583A3E030E005432788
:101340002080035327DF78A7E62402F58218E634CD
:1013500000F583E030E30543274080035327BF783F
:10136000A7E62402F58218E63400F583E030E005B4
:1013700043271080035327EF78A7E62402F582184D
:10138000E63400F583A3E030E405432708800353E7
:1013900027F778A7E62402F58218E63400F583A340
:1013A000E030E50543270480035327FB78A7E624B4
:1013B00002F58218E63400F583A3E030E605432702
:1013C0000180035327FE78A7E62402F58218E6344D
:1013D00000F583A3E030E70543270280035327FD90
:1013E000E527FC78A9E62403F58218E63400F583A6
:1013F000ECF0C2037C00228D278C26ED5403146090
:10140000037C1022E527547C24FC40037C0B22E55E
:1014100026249DF8E64402F67C00228C30120F77D9
:10142000E530249DF8E620E24FAC307D02120D3FFE
:10143000E53024FE4428FC78AA8683088682ECF0F6
:10144000AF83E5822404FEE43FFFEC8E828F83F0BD
:101450007C038C2CE52CFC78ABE62401F58218E6A5
:101460003400F583ECF0E52CFC78ABE62405F5823E
:1014700018E63400F583ECF0752D01752F48752EB4
:10148000FFE53024FDFCE434FFFDEC7C0325E0CDDA
:1014900033CDDCF9FCE52F2CF52FE52E3DF52E782C
:1014A000ABE62404F58218E63400F583E054E7F552
:1014B0002CAD2FAE2EAF2DE4900002120320E4904D
:1014C00000061203201201EF30E503432C10E52C37
:1014D000FC78ABE62404F58218E63400F583ECF0E2
:1014E00012105E78A9E62406F58218E63400F5832A
:1014F000E0C203FCE530249DF8E64404F68C2CE5BC
:1015000030540FC454F07E00FFEEEF44047D00FF22
:10151000EC4EFCED4FFD121CCA7C00228C2F120FEA
:1015200077120FFE78AA8683088682E05408F0A31B
:10153000A3A3A3E05408F0AC2F7D02120D3FC20319
:10154000E52F249DF8E654FBF67C00221230EC785F
:1015500096ECF6EC249DF8E630E10A7D007C13124F
:10156000252812316F7896E6249DF8E64401F67836
:1015700096E6FC120F777896E624FD75F00AA4240F
:1015800014F582E434FCF58378A6E6FA08E6F97BE4
:101590000A78011203B078A68683088682796B7A6E
:1015A000357B0A78011203FE120FCAC2037896E651
:1015B000FC12111A7895ECF6EC600A7D007C08129A
:1015C000252812316F7896E6FC120F7778A9E62469
:1015D00004F58218E63400F583E0441054DFFC780B
:1015E000A9E62404F58218E63400F583ECF078953A
:1015F000ECF6C2037CC81232AF7896E6FC120F7785
:1016000078A9E62404F58218E63400F583E054EF67
:10161000F0C2037CC81232AF7896E6FC120F7778DE
:10162000A9E62404F58218E63400F583E04410F0BE
:10163000C2037CC81232AF7896E6FC120F7778A905
:10164000E62404F58218E63400F583E04420F0C275
:10165000037CF01232AF7896E6FC120F7778A9E699
:101660002405F58218E63400F583E030E415C20362
:101670007896E644107F00FE7C0712320112316F2B
:1016800002174078A9E62404F58218E63400F583B1
:10169000E054CFF0C2037CC81232AF7896E6FC1259
:1016A0000F7778A9E62404F58218E63400F583E084
:1016B0004430F0C2037CF01232AF7896E6FC120F91
:1016C0007778A9E62405F58218E63400F583E03042
:1016D000E414C2037896E644107F00FE7C071232C1
:1016E0000112316F805D78A9E62404F58218E63492
:1016F00000F583E054EFF078A9E62404F58218E6BB
:101700003400F583E054DFF07896E624FD75F00AA6
:10171000A42414F582E434FCF583AC82AD8378A66E
:101720008683088682ECF9EDFA7B0A78011203B011
:10173000C2037896E6FC12111A7D007C0B12252854
:1017400012316F221230ECE490FC39F07D027C0003
:1017500012252812316F221230EC7C001225C112A2
:10176000316F22743C90FBE0F0743E90FBE0F0E4BB
:1017700090FC28F0228D358C34ECB401028003D328
:1017800040028028B402028003D34008A835E62531
:10179000E0F68018B404028003D3400AA835E62599
:1017A000E025E0F68006A83576008000228C3C8D8E
:1017B0003BEDFEECFD7F0175660675670090FC2928
:1017C0001204771201EFB480028006D3500302188E
:1017D0007390FC291204899000031201F554F0B4AF
:1017E00030028003D3405F90FC29120489900008E6
:1017F000120217FAFDEBFE7F0190FC2C120477EE2B
:10180000CD903575FCE493FF740193FEF9EFFA7BFC
:1018100001EAFFE9FEECC39EED9F4025903577E499
:1018200093FD740193FCEDFEECFD7F01EECDFC9089
:10183000FC2EE0D39C90FC2DE09D500575668080C9
:1018400033121991802EB460028003D3400BAC3C5C
:10185000AD3B1207808C66801BB41003B34010C3ED
:10186000B42003B34009C3B440028003D3400075E1
:10187000668180008075B481028003D3406B90FC48
:10188000291204899000031201F554F0B43002804B
:1018900003D3401D90FC29120489900008120217FE
:1018A000FAFDEBFE7F0190FC2F1204771218FB80EB
:1018B00036B460028003D34013753A67E4F539F516
:1018C00038AC3CAD3B1205DC8C66801BB41003B316
:1018D0004010C3B42003B34009C3B440028003D313
:1018E0004000756681800080028000E566FC90FC07
:1018F00029120489EC900002120320AC672290FCAC
:10190000291204899000041201F560047401800119
:10191000E4A2E0920190FC29120489ED2403FD5019
:10192000010E90FC2C12047790FC2912048990007F
:10193000051201F5F5679000041201F5540FFC7DC6
:1019400067121772E567700475660822756600787D
:101950008476007884E6C39567503890FC2F120493
:10196000891201EFFC90FC2C120489EC1203183050
:10197000010E90FC31E004F090FC307003E004F0C4
:1019800078840690FC2EE004F090FC2D7003E004B7
:10199000F080C02290FC2AE0FDA3E0FCEDFEECFD0F
:1019A0007F01ED240AFD50010E90FC321204779065
:1019B000FC291204899000041201F5540FB40102AD
:1019C0008003D3401790FC321204890DED70010E94
:1019D00090FC2F12047778887601804EB402028042
:1019E00003D3401990FC32120489ED2402FD50010A
:1019F0000E90FC2F12047778887602802DB40402B2
:101A00008003D3401990FC32120489ED2404FD5068
:101A1000010E90FC2F12047778887604800CB400B5
:101A2000028003D340007566082290FC29120489C5
:101A30009000051201F5F567788576007885E6C394
:101A400095674003021AF9788676007886E6C378AF
:101A50008896507690FC2C1204891201EFFC90FCC1
:101A6000321204921201E9F45CFC1201E9F890FCD4
:101A70002F120489E8C0E01201EFC8D0E0C8584C2A
:101A8000FC90FC2C120489EC1203187887ECF69079
:101A9000FC31E004F090FC307003E004F009E970E0
:101AA000010A90FC3212048090FC291204899000F3
:101AB000041201F530E40E90FC2EE004F090FC2DB1
:101AC0007003E004F078860680817888E6FDE4FE05
:101AD000FFEECDFC90FC31E02CF090FC30E03DF0CE
:101AE0007888E6FDE4FEFFEECDFC90FC34E02CF0BF
:101AF00090FC33E03DF0788506021A3975660022C5
:101B000022C0E0C0F0C082C083C0D0E8C0E0E9C01D
:101B1000E0EAC0E0EBC0E0ECC0E0EDC0E0EEC0E029
:101B2000EFC0E090FF92E01201C01B4C301B4C3222
:101B30001B5B381B6D3A1B7F3E1B97441B8B461B60
:101B4000A3501BE5521BC4541C065600001C2790D2
:101B5000FF92E07F00FE7C01123201021C37E4FF9D
:101B600004FE7C03123201742090FFFEF0021C3749
:101B7000E4FF04FE7C02123201744090FFFEF0028A
:101B80001C37E4FF04FE7C04123201021C37E4FF20
:101B900004FE7C05123201021C37E4FF04FE7C06C1
:101BA000123201021C3790FFA5E07D0090FBF8CDBA
:101BB000F0A3CDF090FBF9E0FCF58390FBF8E04456
:101BC00033FD121CCA807390FFB5E07D0090FBFAD4
:101BD000CDF0A3CDF090FBFBE0FCF58390FBFAE0A9
:101BE0004443FD121CCA805290FFA6E07D0090FB8A
:101BF000FCCDF0A3CDF090FBFDE0FCF58390FBFC69
:101C0000E04434FD121CCA803190FFB6E07D0090A4
:101C1000FBFECDF0A3CDF090FBFFE0FCF58390FB45
:101C2000FEE04444FD121CCA801090FF92E07D004B
:101C3000FCED44AAFD121CCA8000E490FF92F0D093
:101C4000E0FFD0E0FED0E0FDD0E0FCD0E0FBD0E053
:101C5000FAD0E0F9D0E0F8D0D0D083D082D0F0D064
:101C6000E0320581058105810581A881181818EDEC
:101C7000F608ECF690FF5AE020E70280F790FF5953
:101C8000E07D00A88118CDF6CD08F67D03A881E699
:101C900018FCE6CC25E0CC33CCDDF9CCF6CC08F64C
:101CA000A88118E644F8F6A881181818E6FD08E699
:101CB000FCA881188683088682EDF0A3ECF07402FC
:101CC00090FF5AF0158115811581158122E5812437
:101CD00005F581E4A88118F6A88118181818EDF602
:101CE00008ECF690FBF5E024F85003021DEBE4A8A5
:101CF000811818F6A88118E6FEA88118181818E6A9
:101D0000FD08E6FC7F00EF24F8404DE4EF25E024D9
:101D10007DF582E434FCF583E0FBA3E06C7003FA0C
:101D2000EB6D70097401A8811818F6802BE4EF257B
:101D3000E0247DF582E434FCF5837A00E054F0CCB5
:101D4000F8CCCDF9CDFB7800E954F0F9EA687002DF
:101D5000EB6970010E0F80AEA88118EEF6A881180D
:101D6000181818EDF608ECF6A881EFF6A8811818F7
:101D7000E67079A88118E624F74071A88118181830
:101D800018E6540FA881F664046017A881E664037E
:101D90006010A88118181818E6FD08E6FC121C5FF0
:101DA000804A7C0A123161A88118181818E6FD08CB
:101DB000E6FC90FBF4E025E0247DF582E434FCF5BC
:101DC00083EDF0A3ECF090FBF4E0FFE4EF045407A4
:101DD000FF90FBF4F090FBF5E004F01231FA90FB79
:101DE000F6E07008E4FEFF7C0F123201802790FBC2
:101DF000F7E004F0543F701D90FBF7E044FE7D00D7
:101E0000FC90FBF4E025E0247DF582E434FCF583CE
:101E1000EDF0A3ECF0E58124FBF58122788B7600D0
:101E2000788C7600740190FBF6F01230EC90FBF5A4
:101E3000E060577C0A12316190FBF3E025E0247DDD
:101E4000F582E434FCF583E0FDA3E0FC90FBF3E0D5
:101E500025E0247DF582E434FCF583E4F0A3F090E2
:101E6000FBF3E0FFE4EF045407FF90FBF3F090FB7B
:101E7000F5E014F07889EDF608ECF61231FA78897D
:101E8000E6FD08E6FC1208E380A312324E90FF93B1
:101E9000E04401F0788B06B6000D788B7600788CE4
:101EA000E6F40404788CF68084E490FBF6F090FB72
:101EB000F5E07D00FCED44CFFD121C5F12316F2276
:101EC0001230ECE5706449456F601590FF83E05473
:101ED0000F7D00D39570ED956F5005122F3580035F
:101EE00012300512316F221230ECE5706449456FF3
:101EF000600512303F800E90FF80E04408F090FFB4
:101F000083E0547FF012316F221230EC8C54EC5489
:101F1000F0B41015756A357569FC756801E56A24B9
:101F200003F56AE5693400F569E4F557F556E556B9
:101F3000C394015027E554540FFCAD6AAE69AF68F5
:101F4000120E878C55EC60028012056AE56A7002F9
:101F500005690557E5577002055680D2E554540FC0
:101F6000249DF8E654FEF6E554540F7F00FE7C12E3
:101F7000123201E5551470097D007C091225288074
:101F800007AD577C0012252812316F221230EC90D9
:101F9000FFFCE04402F090FF00E030E71390FF8385
:101FA000E04480F0436D8090FFFCE04401F080113C
:101FB00090FF82E04408F0536D7F90FFFCE054FEF8
:101FC000F090FF81E04480F01225DB90FFFEE044BA
:101FD00005F090FFFCE054FDF012316F221230EC5E
:101FE0007C011232AF78ADE64402F674FEFC04FDCB
:101FF000121CCA90FF5AE030E70280F7E4F54E75F4
:102000004D10AC4EAD4DE54E154E7002154DEC4DDC
:10201000600280EE43870112316F221230EC7C02A5
:1020200012317B78ADE654FDF612316F221230EC9E
:1020300078ADE630E01E78ADE630E11890FFFCE0C8
:102040004420F07C021232AF78ADE654FDF6741AEB
:1020500090FFFEF012316F22756D0090FFFFE0607F
:1020600003436D01756E00E4F56CF56BE4F56F7577
:102070007049748490FF82F0748490FF80F07480C3
:1020800090FF58F0748090FF5AF0AD46AF457E0047
:10209000EE24FE5003022124E4EE75F007A4247F11
:1020A000F582E434F8F583E0FFE4EF5480FDE4EFDB
:1020B000540F14FFED6038E4EF75F008A42448F5E0
:1020C00082E434FFF5837490F0E4EF75F008A42403
:1020D0004AF582E434FFF5837480F0E4EF75F0088C
:1020E000A4244EF582E434FFF5837480F08034E458
:1020F000EF75F008A42408F582E434FFF5837490AA
:10210000F0E4EF75F008A4240AF582E434FFF583C7
:10211000E4F0E4EF75F008A4240EF582E434FFF552
:1021200083E4F00E02208D8D468E448F45747F909F
:10213000FFFDF0749090FFFCF0228C58EC24F650D8
:1021400006E5582437FC22E5582430FC22D2B01290
:102150002525EC7003022260755C03AE5B7F00E511
:102160005C155C6480247F5035EF2400F582E434F4
:10217000FBF583E0FE24FE501EEF7D00FCE4FB74C3
:1021800074C39CFAEB9DFBEE7D00FCEAC39CED64FE
:1021900080CB64809B50028005EF2EFF80C18E5B58
:1021A0008F5AE55C6480247F5003022260E55A2444
:1021B0008E5003022260855A5D755B00AE5AAF5B9C
:1021C0009035A0E493F55CE55C155C6480247F5059
:1021D00018EE2400F582E434FBF583E0FCEF903543
:1021E000A0936C70040E0F80DE8E5A8F5BE55C64EA
:1021F00080247F406E755E017560E8755FFFE55D68
:102200002402F55A755C07E55C334057AD60AE5F5C
:10221000AF5EE55CF5823395E0F5831201F5C454B9
:102220000FFC122137E55A2400F582E434FBF583D4
:10223000ECF0055A055AAD60AE5FAF5EE55CF58225
:102240003395E0F5831201F5540FFC122137E55A5E
:102250002400F582E434FBF583ECF0055A055A15A9
:102260005C80A4740290F851F090F86B79797A351B
:102270007B2778011203FE756A357569FC75680164
:10228000E490FF83F0748090FF81F0755902E55966
:1022900075F007A4247FF582E434F8F583E0788FA5
:1022A000F6FC540F14FC788FECF6E55975F007A492
:1022B0002481F582E434F8F583E0789276FD08769F
:1022C000E8FC788FE675F008A42448F582E434FF32
:1022D000F583E4F0788FE675F008A4244FF582E4E6
:1022E00034FFF583ECF07892E6FF08E67E03CFC377
:1022F00013CF13DEF9FE788FE675F008A42449F5B4
:1023000082E434FFF583EEF0788FE675F008A424BC
:102310004AF582E434FFF5837480F07890ECF67D22
:10232000007893E62CF618E63DF67892E6FD08E68E
:102330007C03CDC313CD13DCF9FC788FE675F00870
:10234000A4244DF582E434FFF583ECF0788FE67534
:10235000F008A4244EF582E434FFF583E4F078928B
:10236000E6FD08E6FC788FE6FF7E00EE24FE5003D3
:102370000224DFE4EE75F007A4247FF582E434F84C
:10238000F583E0FFE4EF5480FAE4EF540F14FFE428
:10239000EE75F007A42481F582E434F8F583E07843
:1023A00090F6E4EE1313548024F0F8E434FDF9E8D9
:1023B000FCE9FD8A5AEA700302244CE4EF75F00848
:1023C000A42448F582E434FFF583E4F07890E6FA3B
:1023D000E4EF75F008A4244FF582E434FFF583EAB6
:1023E000F0EDFBEC7A03CBC313CB13DAF9FAE4EF8D
:1023F00075F008A42449F582E434FFF583EAF07807
:1024000090E67B00FAEC2AFCED3BFDFBEC7A03CB7B
:10241000C313CB13DAF9FAE4EF75F008A4244DF5F1
:1024200082E434FFF583EAF0E4EF75F008A4244A6F
:10243000F582E434FFF5837480F0E4EF75F008A4CE
:10244000244EF582E434FFF5837480F00224DBE44B
:10245000EF75F008A42408F582E434FFF583E4F076
:102460007890E6FAE4EF75F008A4240FF582E434DE
:10247000FFF583EAF0EDFBEC7A03CBC313CB13DA61
:10248000F9FAE4EF75F008A42409F582E434FFF5C5
:1024900083EAF07890E67B00FAEC2AFCED3BFDFB4A
:1024A000EC7A03CBC313CB13DAF9FAE4EF75F00837
:1024B000A4240DF582E434FFF583EAF0E4EF75F02F
:1024C00008A4240AF582E434FFF583E4F0E4EF7510
:1024D000F008A4240EF582E434FFF583E4F00E0244
:1024E00023688E597892EDF608ECF6788FEFF612A5
:1024F0002055228C26EC30E718E526540F1475F091
:1025000008A42448F582E434FFF583E054DFF0802A
:1025100016E526540F1475F008A42408F582E43457
:10252000FFF583E054DFF0227C0022EC90FC37F0D2
:102530008C24ED2403F5257D00D39572ED95714033
:1025400003857225E52524B750097525037402908B
:10255000FC37F0AC2512302A22E4F56CF56B12251D
:102560005F2290FC35E06573600E740490FC37F0D8
:10257000E4F56B756C0380467D73E4FEFF79357A74
:10258000FC7B0174057800120348E56C2403F56CAC
:10259000E56B3400F56BE56CD39572E56B95714096
:1025A0000685726C85716BD3E56C9448E56B94007D
:1025B000400C740290FC37F0E4F56B756C03AC6C66
:1025C00012302A22EC90FC37F0E4F56CF56B8C327B
:1025D000EC600512301B80057C0012302A2290FF2F
:1025E00093E04401F090FF04E0F54A90FF06E0FD1F
:1025F000A3E0ED7D00FC7D00FC90FF06E0FFA3E082
:102600007E00FFE4FEEC4EFCED4FFDC3EC9448ED84
:102610009400502290FF06E0FDA3E0ED7D00FC7DDC
:1026200000FC90FF06E0FFA3E07E00FFE4FEEC4E1E
:10263000FCED4FFD8004E4FD7C488C728D7190FFB1
:1026400002E0FDA3E0ED7D00FC7D00FC90FF02E0D8
:10265000FFA3E07E00FFE4FEEC4EF54CED4FF54BA2
:10266000756A357569FC7568017D357EFC7F017979
:1026700073E4FAFB74057800120348754900E549D4
:1026800024FE4019AD6AAE69AF68E412031805492B
:102690000DED70010E8D6A8E698F6880E1756A3567
:1026A0007569FC75680190FF00E05460B400028019
:1026B00006D35003022C73E54A540FF549E54A54FA
:1026C00080A2E0920290FF01E012018A000B2C6EC2
:1026D00026E528032C6E290F2C6E29F22A262B6161
:1026E0002B642BA42C172C45E56D30E70EE54C45EB
:1026F0004B7008E572640245716003022C7090FF14
:1027000000E0541FB400028003D34029E54A60036F
:10271000022800AD6AAE69AF68740112031878AD83
:10272000E630E00BAD6AAE69AF6874021203187C44
:102730000212302A22B401028003D3401BE56D202F
:10274000E107E54A6003022800E54A24FE5003023F
:1027500028007C0212302A22B402028006D35003E1
:102760000227FEE56D20E10DE54A6009E54A648037
:102770006003022800AC4A1230B14003022800E591
:1027800049702530021190FF80E05408AD6AAE69AF
:10279000AF68120318800F90FF82E05408AD6AAE54
:1027A00069AF68120318803D154930021DE549756F
:1027B000F008A42448F582E434FFF583E05408AD22
:1027C0006AAE69AF68120318801BE54975F008A46A
:1027D0002408F582E434FFF583E05408AD6AAE695D
:1027E000AF68120318AD6AAE69AF681201EF600BF3
:1027F000AD6AAE69AF6874011203187C0212302A08
:10280000228000022C70E56D20E706E572457160BC
:1028100003022C7090FF00E0541FB400028003D329
:10282000401AE54C14454B7004E54A600302290C3C
:1028300078ADE654FEF67C0012302A22B401028004
:1028400003D3402AE56D20E108E56D20E00302296D
:102850000CE56D30E004E54A700BE56D30E109E50B
:102860004A24FE500302290C7C0012302A22B402B2
:10287000028006D3500302290AE54C454B6003024F
:10288000290CAC4A1230B1400302290CE56D20E15D
:1028900007E56D20E0028077E56D30E006E54960F0
:1028A00002806CE549700F90FF82E054F7F090FFD2
:1028B00080E054F7F022E549B401028003D34009D7
:1028C0007D017C03120F178011B402028003D340F4
:1028D000097D017C04120F1780001549300215E5AF
:1028E0004975F008A42448F582E434FFF583E054E8
:1028F000F7F08013E54975F008A42408F582E43464
:10290000FFF583E054F7F07C0012302A22800002A9
:102910002C70E56D20E706E57245716003022C70AE
:1029200090FF00E0541FB400028003D3401AE54C2E
:1029300014454B7004E54A60030229EF78ADE64484
:1029400001F67C0012302A22B401028003D3402910
:10295000E56D20E108E56D20E0030229EFE56D302B
:10296000E004E549700BE56D30E108E54924FE50CF
:1029700002807F7C0012302A22B402028003D340FE
:102980006FE54C454B60028069AC4A1230B14002A1
:102990008060E56D20E107E56D20E0028054E549A7
:1029A000701430020990FF80E04408F0800790FF27
:1029B00082E04408F022E56D30E13315493002151C
:1029C000E54975F008A42448F582E434FFF583E076
:1029D0004408F08013E54975F008A42408F582E462
:1029E00034FFF583E04408F07C0012302A22800294
:1029F0008000022C70E56D20E712E5724571700CC5
:102A0000E54A700890FF00E0541F6003022C70E557
:102A10004C90FFFFF090FFFFE06005436D018003E5
:102A2000536DFE7C0012302A22E56D30E70EE57210
:102A30004571600890FF00E0541F6003022C70ADE8
:102A40004BE54CED7D00FC7D00FCBD0002800302E7
:102A50002B5CB401028003D34032E54A7005E54C9B
:102A6000FC6003022B5E756A407569F8756801D3D6
:102A7000E5729412E57194004006E4FD7C12800436
:102A8000AC72AD718C708D6F12303F22B402028037
:102A900003D3402DE54A6003022B5E756A6B7569AE
:102AA000F8756801D3E5729427E57194004006E457
:102AB000FD7C278004AC72AD718C708D6F12303F3D
:102AC00022B403028006D35003022B5CE54CF54987
:102AD000700F90FF04E0FDA3E04D6003022B5E80C9
:102AE0001890FB02E0FDA3E0FC90FF05E06C70078E
:102AF00090FF04E06D60028068E4F570F56F7F0080
:102B0000E54914C549600FEF2400F582E434FBF574
:102B100083E02FFF80EA8F4AE54A2400F582E434FF
:102B2000FBF583E07D00D39572ED95714006AC72A4
:102B3000AD71800FE54A2400F582E434FBF583E0B3
:102B40007D00FC8C708D6FE54A2400FCE434FBFDB5
:102B5000FEECFD7F018D6A8E698F6812303F228006
:102B600000022C70022C70E56D30E719E5721445F7
:102B7000717012E54A700EE54C454B700890FF00ED
:102B8000E0541F6003022C70E56D20E008E56D2025
:102B9000E103022C70756A6EE4F569F568E4F56F7F
:102BA00004F57012303F22E56D20E727E57245718C
:102BB0007021E54A701DE54C6402454B600DE54C03
:102BC00014454B6006E54C454B700890FF00E054FF
:102BD0001F6003022C70E56D20E008E56D20E10325
:102BE000022C70854C6EE56E700A436D01536DFDCD
:102BF000D2B08020E56E64026007E56E146002804A
:102C000072536DFE436D02E56E64026005E56E145D
:102C10007002C2B07C0012302A22E56D30E71AE55E
:102C2000721445717013E54A700FE54C454B7009FD
:102C300090FF00E0541F1460028038E56D20E1022F
:102C400080317C0112302A22E56D20E715E57245BE
:102C500071700FE54C454B700990FF00E0541F1454
:102C60006002800FE56D20E10280087C0012302AAE
:102C7000228000022F31B440028006D35003022F7D
:102C80002790FF01E090FC35F0E54A90FC36F0E437
:102C900090FC37F0E56A2403F56AE5693400F569CC
:102CA000AD4BE54C856A82856983CDF0A3CDF0906C
:102CB000FF01E01201C02CDE012D04022D2E032D98
:102CC00058042DA6052DE3062E09072E2F082E5B8E
:102CD000092E810B2EA70C2EB6802EB68100002F58
:102CE00014E56D20E7067C051225C1227D287E357E
:102CF0007F0279387AFC7B01740878001203487DE2
:102D0000087C0012252822E56D20E7067C051225A7
:102D1000C122E54AB403004010B40500500BE54A57
:102D20007F00FE7C10123201227D007C07122528D4
:102D300022E56D20E7067C051225C122E54AB40391
:102D4000004010B40500500BE54A7F00FE7C1112D4
:102D50003201227D007C0712252822E56D20E7063E
:102D60007C051225C122E54AB405028003D3400A3E
:102D7000E4FF04FE7C0A12320122B401028003D374
:102D8000400AE4FF04FE7C0812320122B403004032
:102D900010B40500500BE54A7F00FE7C131232018F
:102DA000227D007C0712252822E56D20E734D3E53B
:102DB000729448E57194005006E572457170067C86
:102DC000021225C122E54AB40103B3400BC3B40388
:102DD000004009B4060050041230D7227C071225A7
:102DE000C12212255F22E56D20E71DE54AB40300EC
:102DF0004010B40500500BE54A7F00FE7C161232ED
:102E000001227C071225C12212255F22E56D20E7F1
:102E10001DE54AB403004010B40500500BE54A7F9D
:102E200000FE7C19123201227C071225C1221225D4
:102E30005F22E56D20E723748190FF93F0E54AB4AB
:102E400003004010B40500500BE54A7F00FE7C17DC
:102E5000123201227C071225C12212255F22E56D64
:102E600020E71DE54AB403004010B40500500BE50F
:102E70004A7F00FE7C18123201227C071225C122F3
:102E800012255F22E56D20E71DE54AB403004010DE
:102E9000B40500500BE54A7F00FE7C15123201227A
:102EA0007C071225C12212255F22E56D20E7067CF2
:102EB000071225C12212255F22E56D30E72090FF21
:102EC00000E0541F701090FF01E0B48005122556F9
:102ED000800312255F227D007C051225282290FFA9
:102EE00000E0541F60067C051225C122D3E57294D0
:102EF00048E5719400500BC3E5729407E5719400A6
:102F000050067C031225C122E54AB405041230D7CD
:102F1000227C071225C122E56D30E7087D007C0583
:102F2000122528227C051225C122B420028003D359
:102F3000400080001230052275430090FF83E0546A
:102F40000FD395434024E54324F0F582E434FEF5A5
:102F500083E0AD6AAE69AF6812031805430DED70EA
:102F6000010E8D6A8E698F6880D1E5437D00FCC3B8
:102F7000E5709CF570E56F9DF56FE570456F600637
:102F8000E490FF83F02290FF82E04408F0E4F56FC4
:102F900075704990FC35E0B405028003D340409041
:102FA000FC36E0F543B405028003D3400AE4FF0495
:102FB000FE7C0B12320122B401028003D3400AE4EA
:102FC000FF04FE7C0912320122B403004010B40554
:102FD00000500BE5437F00FE7C141232012222B424
:102FE00080004023B48200501E7C357DFC1217AA5D
:102FF0007D008C6C8D6B90FC37E060051230058095
:10300000057C0012302A222290FF83E0547FF0904A
:10301000FF82E04408F090FF80E04408F02290FF37
:1030200082E04408F090FF80E04408F0228C237D89
:10303000008C708D6F756A357569FC75680112308A
:103040003F2290FF83E0547FF0E5706449456F7044
:103050000122C3E5709408E56F94004015752108BE
:10306000E5217D00FCC3E5709CF570E56F9DF56F73
:103070008009857021E4F56F757049752200E5229D
:10308000C395215026AD6AAE69AF681201EFFCE529
:103090002224F8F582E434FEF583ECF005220DEDF0
:1030A00070010E8D6A8E698F6880D3E521547F9000
:1030B000FF81F0228C487F00EF24FD4019E4EF757A
:1030C000F007A4247FF582E434F8F583E0654870C6
:1030D00002D3220F80E28F47C32285727085716F01
:1030E00090FF82E054F7F090FF83E0547FF022C01D
:1030F00000C001C002C006C007E5782408F88606B3
:1031000053067F7CFF1231617C007D00E57B6046C9
:10311000FF90FD95E0547F6E700FC083C082A3E0E6
:10312000FDA3E0FCA3157B8007A3A3A3DFE6802615
:10313000DF06D082D083801EE0F8A3E0F9A3E0FA96
:10314000D082D083E8F0A3E9F0A3EAF0A3C083C063
:1031500082A3A3A380DA1231FAD007D006D002D01E
:1031600001D0002285A87A75A888EC70027C3F8C7B
:103170007922E5782408F8760012324E80FBC000F0
:10318000C001C002C006C007AE047CFF123161E579
:103190007B6042FF90FD95E0547F6E700BC083C052
:1031A00082A3A3A3157B8007A3A3A3DFEA8026DF66
:1031B00006D082D08380D8E0F8A3E0F9A3E0FAD06B
:1031C00082D083E8F0A3E9F0A3EAF0A3C083C08231
:1031D000A3A3A380DA7808087918097C01E6547F54
:1031E0006E700676007700800608090CBC08EE12A7
:1031F00031FAD007D006D002D001D0002275790074
:10320000857AA822C0F0C082C083C3E57B24E85041
:103210000512324E80F4EC6031903527E493C39C64
:103220004028C0047CFF123161D004430480E57B58
:1032300075F003A42495F582E434FDF583ECF0EFFA
:10324000A3F0EEA3F0057B1231FAD083D082D0F048
:1032500022C0047C20D28CD28DD504FDD0042275EE
:10326000A80075880075B80075F00075D000E4F806
:10327000900000F608B800FB020000C3ED94025075
:10328000047D037CE8ECF4FCEDF4FD0CBC00010DC6
:103290008C7F8D7E22C3EC94BCED940250047D079C
:1032A0007CD0ECF4FCEDF4FD0CBC00010D8C7D8DAC
:1032B0007C22EC700122C000E5782418F8A604E511
:1032C000782408F8C6547FF6E630E703D0002212CF
:1032D000324E80F4C28C857C8C857D8AD28CC0E095
:1032E000C0D0C0F0C082C083C000C001C002C00313
:1032F000C004C005C006C007121AFDE5782408F80E
:10330000E66024E5782410F8A681E57875F021A41C
:10331000248DF582E434FCF58378AEE58104C3980E
:10332000F9E6F008A3D9FA74082578F8057808E6D4
:103330005480700CE578B407F3780875780080EF56
:10334000E5782410F88681E57875F021A4248DF5C0
:1033500082E434FCF58378AEE58104C398F9E0F6A5
:1033600008A3D9FAD007D006D005D004D003D002E4
:10337000D001D000D083D082D0F0D0D0D0E032C005
:10338000E0C0D0C000C001C002C28E857E8D857FA6
:103390008BD28E781979097A07E77004A600800B22
:1033A000E6600816E67004E74480F70809DAEAE503
:1033B00079601314F579700EE5782408F876001218
:1033C00031FAD28CD28DD002D001D000D0D0D0E052
:1033D000327581AD742A90FF93F0757F30757EF859
:1033E000757D60757CF012053F1234801217609075
:1033F000FF93E04401F01234AA12325C80DC22C058
:10340000007C01EC2408F8E660090CBC08F51232D7
:103410004E80EED00022C0F0C082C083C000C00643
:10342000C007ED2410F876BCED75F021A4248DF5CD
:1034300082E434FCF583C082C083A3A3E4780DF05A
:10344000A3D8FCEC547F75F002A424F3F582E5F0D8
:103450003434F583E493FE740193F5828E83E49310
:10346000FE740193FFD083D082EFF0A3EEF0ED2441
:1034700008F8EC4480F6D007D006D000D083D08284
:10348000D0F022757800757B007A08791878087674
:103490000077000809DAF8E478087480447FF6744D
:1034A000014410F58975B808D2ABD2A9227581AD57
:1034B000D28ED28CD2AFE57B6032FF90FD95E05486
:1034C00080602478087908E0547FFA7B00E6547F16
:1034D000B502027BFF08D9F5EB700CEAF01233FC61
:1034E000AD04AC02123413A3A3A3DFD212324E8078
:1034F000C57C017D002204FE04F204F604EA04E621
:1035000004E204EE04FA04A604AA04D604DA04A22F
:1035100004A204A204DE04BE04B604BA04B204CABF
:1035200004C604C204CE04D204AE19010300220072
:10353000480200480E301420C81AD0180A0C05069C
:10354000020301020001CE0181010000C0008000E1
:1035500060003000180010000800040002000100A4
:10356000081828380C05100A0200000000000301AA
:10357000100A020000000000FBE0FBF20902270035
:10358000010200A0FA0904000003FF000000070583
:103590008102400000070501024000000705830387
:1035A000020001220354005500530042003300344E
:1035B00000310030002000200020002000200020EA
:0935C000002000200000000000C2
:00000001FF
