:100000000202EC02025B22FFFFFFFF02012CFFFF56
:10001000FFFFFF02001EFFFFFFFFFF0200DDC0E049
:10002000C0F0C083C082C0D075D018C2AF304503C5
:10003000121009900416E030E3037408F0900414E1
:10004000E020E7030200CB7480F0907012E0F560CE
:10005000900404E024CF603014604224E26047142E
:10006000605524217060E55524FE60071460082463
:100070000270087D0180287D028024907010E0F5D8
:1000800050856040D201803EE55564036004E5552B
:1000900070047D028009856041D2028029AD55AF90
:1000A000601202378020907010E0F547907011E0E8
:1000B000F5441210258006907010E0F545E4FDAF80
:1000C00060120237D204907013E4F0907013E4F0E1
:1000D000D2AFD0D0D082D083D0F0D0E032C0E0C058
:1000E000F0C083C082C0D0E8C0E0E9C0E0EAC0E070
:1000F000EBC0E0ECC0E0EDC0E0EEC0E0EFC0E0C27D
:10010000AF304503121012D2AFD0E0FFD0E0FED0E6
:10011000E0FDD0E0FCD0E0FBD0E0FAD0E0F9D0E0A8
:10012000F8D0D0D082D083D0F0D0E032C0E0C0F0A0
:10013000C083C082C0D075D010C2AF30450312104A
:100140000C30580AE554600415548002C2583059E6
:100150000AE550600415508002C259D5530730603B
:10016000041546D20430450312100FC28DD2AFD011
:10017000D0D082D083D0F0D0E03212027D3045035F
:1001800012100330010620090312101C3002062051
:100190000A0312101F300306200B0312101F300435
:1001A00006200C03121022201309201106E52B450E
:1001B0002C6003D38001C392A91202AD80BFC24359
:1001C000D245E4F520F521F553F546F52BF52CC283
:1001D00042F551F552F5559004187480F090041AC8
:1001E0007408F0C219C218C21A22C8EFC8E6FA0889
:1001F000E64A600CC8EFC808E61618700116C3225C
:10020000ED24FFFDEC34FFC8EFC8F608C6EDC6D3F9
:1002100022D083D082F8E4937012740193700DA3FE
:10022000A393F8740193F5828883E473740293684E
:1002300060EFA3A3A380DFEFF4601FE4FE12031CB2
:10024000E0B4FF1212031CEFF0741C2EF582E434AC
:1002500070F583EDF0220EBE04E322C0E0C0F0C0D2
:1002600083C082C0D075D008C2AF304503121006DB
:10027000D2AFD0D0D082D083D0F0D0E032C2AF1293
:1002800000061201BE120296E4F522F54790040022
:100290007480F0D2AF22758902E4F58CF58AF58876
:1002A000F5B8F5E8759018D28C75A805223045038D
:1002B000121015E52070032010033011034387014D
:1002C00022CEEFCEEE60087FFF1202F81E80F522EC
:1002D000C8EFC8E6600316C322ED14F6D322C8EFB8
:1002E000C8E6600616E624FFB322C322787FE4F650
:1002F000D8FD75816302017AEF60031F80FA22FF47
:10030000C0267403C0E0C082C08375260A22C026BE
:100310007403C0E0C082C0837526182274142EF5C1
:1003200082E43470F58322EF9003309390030073DE
:100330000A18FFFFFFFFFFFFFFFFFFFFFFFFFFFFA9
:10034000FFFFFFFFFFFFFFFFFFFFFFFFFFFFFFFFBD
:10035000FFFFFFFFFFFFFFFFFFFFFFFFFFFFFFFFAD
:10036000FFFFFFFFFFFFFFFFFFFFFFFFFFFFFFFF9D
:10037000FFFFFFFFFFFFFFFFFFFFFFFFFFFFFFFF8D
:10100000FFFFFF02102802103B02103C02153802BD
:101010001539021662021663C322FFFF021B420249
:101020001CCE02178F0216CA300506200D03121EB1
:1010300001300606200E03121E4D2222900414E0F9
:1010400020E703021537907012E0F556900404E093
:1010500012021111073010DE31109F3310AD341021
:10106000C03510B736111440112B41114250118771
:101070005111905211905311905411CC5512295680
:10108000127C6412977012BD7112E6721399731379
:10109000BD7414AB80151B8314D29100001537D298
:1010A00018D26175332A75300B7531B822C2189089
:1010B0000114E054FDF022907011E0F53C0215316E
:1010C000E555B4020FE55830E00690010D7408F0C4
:1010D0007D0180027D02AF561202370215312002D7
:1010E0000330030A7D02AF56120237021531E53292
:1010F000D39401400C90010CE04402F0A3E04404BE
:10110000F0855641D20222907011E0B45A03C24FCA
:1011100022D24F22E532D3940150030215379001B9
:101120000CE04402F0A3E04404F022E532D3940141
:10113000500302153790010CE054FDF0A3E054FB7E
:10114000F022E532D394014007E5556003021537DC
:10115000907010E0547FFFBF0A0D907011E0B4084A
:1011600006754E01754F84907010E0547FFFBF02EA
:1011700012907011E064086004E0B42006754E031C
:10118000754F20E4F52722907011E024FF9247224A
:10119000E532D394014007E55560030213A490049F
:1011A00004E025E0245DF557907010E0FF744725BA
:1011B00057F8C6EFC6907011E0FF74482557F8C67F
:1011C000EFC6E4FDAF56120237021531E532D39473
:1011D000014007E55560030213A4E5476407601D5D
:1011E000E54764086017E54764096011E547640A4C
:1011F000600BE547640B6005E547B40C089070117F
:10120000E0540FF53AE547B40908E53AB40303E4BE
:10121000F546E547B40A08E53AB40103E4F546E4C7
:10122000FDAF56120237D20422907011E0F4FF9005
:101230007010E05FFF907011E055274F907018F02C
:10124000907011E0907019F0E4FDAF561202373043
:101250001503D21422907018E0F527900229E0FFC0
:10126000907019E0FEEF5E900229F0304704AF273E
:101270008004E527F4FF900228EFF022907010E040
:1012800024FF921B75350375361FE4F534AD57AF57
:1012900056120237021531E532D394014007E55565
:1012A00060030213A4907010E0FE907011E0FDED59
:1012B000F8E6F557FDAF56120237021531E532D385
:1012C00094014007E55560030213A4907010E0FEFE
:1012D000907011E0FDEDF5828E83E0F557FDAF567D
:1012E000120237021531901000E0F557E4F558F579
:1012F00059901003E0B42805755801803C90100304
:10130000E0B430057558028030901003E0B4330526
:101310007558048024901003E0B4350C901002E05E
:10132000B472057558088011901003E0B4350A9026
:101330001002E0B49303755810E55830E119900598
:1013400008E04401F0FD900505E054FBF04404F092
:10135000ED54FE900508F0E4F54EF54F753AFFC2E6
:1013600019C218C21AF5329005A47411F0A374FFC3
:10137000F0A37403F0D24F90010DE04440F0753CAF
:10138000FFAD57AF561202379070347431F0A3742A
:1013900026F0C21BC217021531E532D39401400B6F
:1013A000E55560077D03AF56020237907010E024C8
:1013B000FF9293E4FDAF56120237021531901000F0
:1013C000E090102CF090102F7440F0907011E054C9
:1013D0007FF557E05480907032F0907010E0FFE598
:1013E00057D39F4042907033E557F0907010E0FF64
:1013F000907033E0D39F4071E0FF907032E04F90E7
:101400000500F0E558540F60047F1780027F1190AB
:101410000501EFF0A37401F07403F0FF1202F890DD
:101420007033E014F080C4907033E557F090701082
:10143000E0FF907033E0C39F502FE0FF907032E0E8
:101440004F900500F0E558540F60047F1780027F2D
:1014500011900501EFF0A37401F07403F0FF120284
:10146000F8907033E004F080C4907010E0FF90704A
:1014700032E04F900500F0E558540F60047F17806C
:10148000027F11900501EFF0A37401F07403F0FFE7
:101490001202F8901000E090102CF090102F747F42
:1014A000F0E4FDAF56120237021531E532D3940154
:1014B000400DE55560097D03AF56120237807290EA
:1014C0007010E024FF924AD205AD57AF5612023792
:1014D000805F907011E024FF9217907010E0F55D2E
:1014E000AD57AF561202379004147480F0301713C2
:1014F000901000E090102CF090102FE054F0F55771
:10150000455DF0E4907013F0E556F4602A90702584
:10151000E04401F090022C74FFF022E4F532D24F47
:10152000907010E0F46003E0F532AD57AF56120250
:10153000379004147480F02222E5364535600AE5C0
:10154000361536700A1535800675350375361FE574
:1015500036453560030215E6201B030215E674A02C
:101560002534F582E4344CF583E0607A7F7E1216F0
:10157000B1EF54FE4402FD7F7E121697E5347F00E2
:1015800025E0FEEF2400F582744D3EAF82904CA81A
:10159000F0A3EFF0E4F556F5577F7F1216B1904CAB
:1015A000A8E0FAA3E02557F582EA3556F583EFF077
:1015B0000557E55770020556C39480E556940140DF
:1015C000D87F7E1216B1EF4403FD7F7E121697740A
:1015D000A02534F582E4344CF583E4F00534E53499
:1015E000B40803E4F534E5537077306009B24D3048
:1015F0004D040546C204E54F454E6008E54F154FC2
:101600007002154E3019497F307DB87C0B1201EA0B
:1016100050069004107440F07F337D321202D05097
:1016200009901004E054F7F0D206E533D3942D402E
:1016300030301A2DC21AA2189219201924900409C8
:10164000E054DDF0901004E04408F0C261D20322BF
:10165000E4F533A2189219301907900409E04422E6
:10166000F02222301430907019E05527FF90701846
:10167000E04FF527900229E0FF907019E0FEEF5E41
:10168000900229F0304704AF278004E527F4FF904B
:101690000228EFF0C2142290101CEDF0A3EFF0A38B
:1016A000740AF090101CE0F55890101EE020E1F351
:1016B0002290101DEFF0A3740BF090101CE0F55871
:1016C00090101EE020E1F3AF5822C24BC24CE5441B
:1016D00012021116EC00177A041776081756101725
:1016E00000201720601731A00000177C8548438533
:1016F0004A42854C5EE5476406600302177C801B06
:10170000E548C4540FF543E54AC4540FF542E54C8F
:10171000C4540FF55EE5476406706153430F805C67
:10172000854943854B42854D5EE5476406704D8093
:101730001BE549C4540FF543E54BC4540FF542E58E
:101740004DC4540FF55EE54764067030E543540F11
:101750004410F5438026E54764046005E547B40579
:1017600006435E04754209E547B40610E543540F8D
:101770004430F5438006D24B8002D24CE4F52AE592
:1017800042C454F0FFE543540F4FF55FD26022D2BC
:1017900015E54724F5600B24CB600724407006C292
:1017A0001522121B0D1217B1C215C2AFC204D2AF5F
:1017B00022C2AF900414E0540E6004D21C8008E5ED
:1017C0004E454F24FF921CD2AF900414E0A2E49245
:1017D0001D741EF0E55F540FF52DE52A7013301CC3
:1017E00005E55F20E50B301D19E55F5430FFBF3084
:1017F00011E52A7005752A0C8002152AD26CD26D6B
:10180000800FE55F30E606C26CD26D8004D26CC2F8
:101810006DE54764037021304B06C26CD26D8018B1
:10182000E52A7003304C11C24CE52A7005752A0771
:101830008002152AD26CD26DE547B40914E5442024
:10184000E30BE53A64026005E53AB40304C26CD2E6
:101850006DE547B40A13E53AB40106C26CD26D8057
:1018600008E53A7004D26CC26D206907E55E20E09D
:1018700002B268206B07E55E20E102B26A206D07C4
:10188000E55E20E202B26C752E40206904A26880F9
:1018900026306806E546A2E2801DE55E20E0047F72
:1018A0000180027F00E54654F0FEBEF0047E018018
:1018B000027E00EE6F24FF92739272206B04A26A84
:1018C0008026306A06E546A2E2801DE55E20E1043E
:1018D0007F0180027F00E54654F0FEBEF0047E01E9
:1018E00080027E00EE6F24FF92759274206D04A238
:1018F0006C8026E547640A7022306C06E546A2E358
:101900008017E53AB40106E546A2E38034E54620B7
:10191000E40330E503D38001C38026306C06E5463E
:10192000A2E2801DE55E20E2047F0180027F00E5E7
:101930004654F0FEBEF0047E0180027E00EE6F246D
:10194000FF92719270901000E090102CF0901003B4
:10195000E0C394304019E064326014A2719277A21F
:10196000709276E52E1313543FF52EC277D276305F
:10197000170D532EF0E52E455D90102FF080069048
:10198000102FE52EF0E54764067047900228E030FE
:101990004703FF8002F4FF8F27900229E054FEF0F6
:1019A000E543C4540F14600C24FE600C2403701330
:1019B000C238800FD238800BE54630E203D3800175
:1019C000C39238304705AF27021B07E527F4FF0213
:1019D0001B07E5476407600FE54764086009E547B2
:1019E00064096003021A75900228E0304703FF8003
:1019F00002F4FF8F27900229E054FCF0E53A1460CE
:101A00002214602514602D24FC604924F9601424FC
:101A10000E7050E5461313543F75F00384E5F0242F
:101A2000FF803AD239C238803EE54630E203D380A7
:101A30001DC3801AE54630E20D5438C39430500679
:101A40007E007F0180047E007F00EE4F24FF9238ED
:101A5000C2398013E54630E203D38001C39239C214
:101A6000388004C238C239304704AF278004E527E4
:101A7000F4FF021B07E547640C6009E547640B604F
:101A800003021B0C900228E0304703FF8002F4FFA2
:101A90008F27900229E054FDF0E53A14602014608D
:101AA0002114602B24FC604524F96012240E704A36
:101AB000E5461313543F75F00384E5F08029D239CD
:101AC000803AE54630E203D38001C39239802DE5A8
:101AD0004630E20D5438C3943050067E007F0180BA
:101AE000047E007F00EE4F24FF9239800FE54630E0
:101AF000E203D38001C392398002C239304704AF78
:101B0000278004E527F4FF900228EFF022E547B490
:101B10000B10900229E054EBF0E52754EB4545F516
:101B20002722E4900229F0304704AF458004E545C0
:101B3000F4FF900228EFF0228F50D259228F54D216
:101B40005822E4F561C2AFE55114604A14606B2479
:101B5000026003021CAFD25975550120191C900276
:101B600008E054FEF0E020E123900434E0B4021CCD
:101B7000A3E0B40217A3E0B402127F20121B389036
:101B80001004E054F3F0755101021CAFE5507006EB
:101B9000756103021CAF901200E0540370157F20A2
:101BA000121B38201907900208E054FBF07551020F
:101BB000021CAFE5507003021CAA20191590020800
:101BC000E030E303021CA6900437E06422600302C5
:101BD0001CA6901204740AF0E55830E31C90000231
:101BE000E030E015E4900500F0A37408F0A3740160
:101BF000F07403F07F011202C1901328E090701A74
:101C0000F0901329E090701BF090132BE09070225D
:101C1000F0901328E054F0F0A3E054F0F090132B70
:101C2000E054CCF0E55830E317E5327013E53CF4AE
:101C300090132A6005E054F38011E054FBF0801407
:101C4000E53CF490132A6008E054F2453CF080042F
:101C5000E054FAF0201907900401E04410F0758C6C
:101C600080900401E054FDF0201907901204E04434
:101C700004F0E55830E00690010DE0F52FE532D391
:101C800094014017200214200311304F0E90010DD3
:101C9000E054FBF090010CE054FDF07561017555C6
:101CA00002E4F5518009E5507005756103F551E5D1
:101CB000616018C201E4F551C25920190EAD61AF3F
:101CC00040121DCDE561B40302D203D2AF22C2AFF0
:101CD00030010EE4F551C259C2017D02AF40121D20
:101CE000CDE55214604814602524026003021DCA29
:101CF000E532D39401401190010CE04402F0A3E0DE
:101D00004404F07F0A1202C1755202755503E5586A
:101D100030E00690010DE52FF0901204E054FBF046
:101D20007F20121B3D755201755503021DCAE554F3
:101D30006003021DCA900401E0440EF0201904E083
:101D400054EFF0E4F58CE5585418601E90701AE0DA
:101D5000901328F090701BE0901329F0A37405F005
:101D6000907022E090132BF08011901328E0440F24
:101D7000F0A3E0440FF0A3E04405F09012047403D4
:101D8000F0E55830E31D900002E030E016900500C9
:101D900074E2F0A37408F0A37401F07403F07F01FF
:101DA0001202C1201907900208E04405F0901004C7
:101DB000E0440CF0E4F552F555300209C2027D0111
:101DC000AF41121DCD300302C203D2AF22EFF46047
:101DD0002DE4FE74142EF582E43470F583E0B4FF34
:101DE0001974142EF582E43470F583EFF0741C2E10
:101DF000F582E43470F583EDF0220EBE04D5222284
:101E00002290702AE030E143C2AF907028E0901039
:101E10001CF0907029E090101DF090702AE0901056
:101E20001EF090101CE0F56190101EE020E1F39090
:101E3000101CE0907028F090101DE0907029F09038
:101E4000101EE090702AF0C205D2AF22223019771E
:101E5000900437E020E56C900428E0F562A3E0F5FB
:101E600061F563E4F525E56375F080A42400FFE5E2
:101E7000F03480FEE56165637005FC7D2880047C9C
:101E8000007D00EF2DFFEE3CFE121EC850079001B2
:101E900014E04402F0E56365626010E42563FFE44A
:101EA00034808F82F583E0F56380BB900410740169
:101EB000F0900428E562F0A3E561F090041174014C
:101EC000F0808DC206D21A22E525C3940650198FE0
:101ED000828E83E0B4FF070525E4F524802EE4F527
:101EE000258F828E83F08024E52475F006847408A3
:101EF00025F0F582E43410F583E0FD8F828E83E0D7
:101F00006D7006052505248003E4F5250FBF00014B
:101F10000EEF547F6007E525C3942A40ABE525B456
:101F20002A03D38001C3220000000000000000004B
:101F300000000000000000000000000000000000A1
:101F40000000000000000000000000000000000091
:101F50000000000000000000000000000000000081
:101F60000000000000000000000000000000000071
:101F70000000000000000000000000000000000061
:101F80000000000000000000000000000000000051
:101F90000000000000000000000000000000000041
:101FA0000000000000000000000000000000000031
:101FB0000000000000000000000000000000000021
:101FC0000000000000000000000000000000000011
:101FD0000000000000000000000000000000000001
:101FE00000000000000000000000000000000000F1
:101FF0000000000000000000000000000022A070AF
:00000001FF
